{
    "contractName": "SimpleStorage",
    "abi": [
        {
            "inputs": [
                {
                    "internalType": "string",
                    "name": "_name",
                    "type": "string"
                },
                {
                    "internalType": "uint256",
                    "name": "_favouriteNumber",
                    "type": "uint256"
                }
            ],
            "name": "addPerson",
            "outputs": [],
            "stateMutability": "nonpayable",
            "type": "function"
        },
        {
            "inputs": [],
            "name": "favoriteNumber",
            "outputs": [
                {
                    "internalType": "uint256",
                    "name": "",
                    "type": "uint256"
                }
            ],
            "stateMutability": "view",
            "type": "function"
        },
        {
            "inputs": [
                {
                    "internalType": "uint256",
                    "name": "",
                    "type": "uint256"
                }
            ],
            "name": "people",
            "outputs": [
                {
                    "internalType": "uint256",
                    "name": "favoriteNumber",
                    "type": "uint256"
                },
                {
                    "internalType": "string",
                    "name": "name",
                    "type": "string"
                }
            ],
            "stateMutability": "view",
            "type": "function"
        },
        {
            "inputs": [],
            "name": "person1",
            "outputs": [
                {
                    "internalType": "uint256",
                    "name": "favoriteNumber",
                    "type": "uint256"
                },
                {
                    "internalType": "string",
                    "name": "name",
                    "type": "string"
                }
            ],
            "stateMutability": "view",
            "type": "function"
        },
        {
            "inputs": [],
            "name": "retrieve",
            "outputs": [
                {
                    "internalType": "uint256",
                    "name": "",
                    "type": "uint256"
                }
            ],
            "stateMutability": "view",
            "type": "function"
        },
        {
            "inputs": [
                {
                    "internalType": "uint256",
                    "name": "_favoriteNumber",
                    "type": "uint256"
                }
            ],
            "name": "store",
            "outputs": [],
            "stateMutability": "nonpayable",
            "type": "function"
        }
    ],
    "bytecode": "5f805460ff191660019081179091556103129055600b1960025560c0604052600560809081526429b2bb32b760d91b60a05260039061003e908261012f565b5060408051808201825260078152815180830190925260058083526420bcb0b0b760d91b6020848101919091528201839052815160049081559192610083908261012f565b505050348015610091575f80fd5b506101e9565b634e487b7160e01b5f52604160045260245ffd5b600181811c908216806100bf57607f821691505b6020821081036100dd57634e487b7160e01b5f52602260045260245ffd5b50919050565b601f82111561012a57805f5260205f20601f840160051c810160208510156101085750805b601f840160051c820191505b81811015610127575f8155600101610114565b50505b505050565b81516001600160401b0381111561014857610148610097565b61015c8161015684546100ab565b846100e3565b6020601f82116001811461018e575f83156101775750848201515b5f19600385901b1c1916600184901b178455610127565b5f84815260208120601f198516915b828110156101bd578785015182556020948501946001909201910161019d565b50848210156101da57868401515f19600387901b60f8161c191681555b50505050600190811b01905550565b6104b3806101f65f395ff3fe608060405234801561000f575f80fd5b5060043610610060575f3560e01c80632e64cec11461006457806346cb59c21461007b578063471f7cdf146100915780636057361d1461009a5780636f760f41146100af5780639e7a13ad146100c2575b5f80fd5b6001545b6040519081526020015b60405180910390f35b6100836100d5565b604051610072929190610225565b61006860015481565b6100ad6100a8366004610261565b600155565b005b6100ad6100bd36600461028c565b61016a565b6100836100d0366004610261565b6101f2565b60048054600580549192916100e990610341565b80601f016020809104026020016040519081016040528092919081815260200182805461011590610341565b80156101605780601f1061013757610100808354040283529160200191610160565b820191905f5260205f20905b81548152906001019060200180831161014357829003601f168201915b5050505050905082565b6040805180820190915281815260208101838152600680546001810182555f91909152825160029091027ff652222313e28459528d920b65115c16c04f3efc82aaedc97be59f3f377c0d3f8101918255915190917ff652222313e28459528d920b65115c16c04f3efc82aaedc97be59f3f377c0d4001906101eb90826103c2565b5050505050565b60068181548110610201575f80fd5b5f91825260209091206002909102018054600182018054919350906100e990610341565b828152604060208201525f82518060408401528060208501606085015e5f606082850101526060601f19601f8301168401019150509392505050565b5f60208284031215610271575f80fd5b5035919050565b634e487b7160e01b5f52604160045260245ffd5b5f806040838503121561029d575f80fd5b823567ffffffffffffffff8111156102b3575f80fd5b8301601f810185136102c3575f80fd5b803567ffffffffffffffff8111156102dd576102dd610278565b604051601f8201601f19908116603f0116810167ffffffffffffffff8111828210171561030c5761030c610278565b604052818152828201602001871015610323575f80fd5b816020840160208301375f6020928201830152969401359450505050565b600181811c9082168061035557607f821691505b60208210810361037357634e487b7160e01b5f52602260045260245ffd5b50919050565b601f8211156103bd57805f5260205f20601f840160051c8101602085101561039e5750805b601f840160051c820191505b818110156101eb575f81556001016103aa565b505050565b815167ffffffffffffffff8111156103dc576103dc610278565b6103f0816103ea8454610341565b84610379565b6020601f821160018114610422575f831561040b5750848201515b5f19600385901b1c1916600184901b1784556101eb565b5f84815260208120601f198516915b828110156104515787850151825560209485019460019092019101610431565b508482101561046e57868401515f19600387901b60f8161c191681555b50505050600190811b0190555056fea264697066735822122024d61dabafcd9b53105d36835aa93ab88a426dacc2ce972331c1f42ac1609ab164736f6c634300081a0033",
    "sourcePath": "/Users/mdmuzzammilrashid/Desktop/Blockchain/Solidity01/SimpleStorage.sol",
    "compiler": {
        "name": "solc",
        "version": "0.8.26+commit.8a97fa7a"
    },
    "functionHashes": {
        "addPerson(string,uint256)": "6f760f41",
        "favoriteNumber()": "471f7cdf",
        "people(uint256)": "9e7a13ad",
        "person1()": "46cb59c2",
        "retrieve()": "2e64cec1",
        "store(uint256)": "6057361d"
    },
    "gasEstimates": {
        "creation": {
            "codeDepositCost": "240600",
            "executionCost": "infinite",
            "totalCost": "infinite"
        },
        "external": {
            "addPerson(string,uint256)": "infinite",
            "favoriteNumber()": "2305",
            "people(uint256)": "infinite",
            "person1()": "infinite",
            "retrieve()": "2247",
            "store(uint256)": "22354"
        }
    }
}