{
    "contractName": "StorageFactory",
    "abi": [
        {
            "inputs": [],
            "name": "createSimpleStorageContract",
            "outputs": [],
            "stateMutability": "nonpayable",
            "type": "function"
        },
        {
            "inputs": [
                {
                    "internalType": "uint256",
                    "name": "",
                    "type": "uint256"
                }
            ],
            "name": "simpleStorageList",
            "outputs": [
                {
                    "internalType": "contract SimpleStorage",
                    "name": "",
                    "type": "address"
                }
            ],
            "stateMutability": "view",
            "type": "function"
        }
    ],
    "bytecode": "6080604052348015600e575f80fd5b506108e28061001c5f395ff3fe608060405234801561000f575f80fd5b5060043610610034575f3560e01c80631dda654114610038578063ceaf9ec114610042575b5f80fd5b610040610071565b005b61005561005036600461011b565b6100e7565b6040516001600160a01b03909116815260200160405180910390f35b5f60405161007e9061010e565b604051809103905ff080158015610097573d5f803e3d5ffd5b505f80546001810182559080527f290decd9548b62a8d60345a988386fc84ba6bc95484008f6362f93160ef3e5630180546001600160a01b0319166001600160a01b039290921691909117905550565b5f81815481106100f5575f80fd5b5f918252602090912001546001600160a01b0316905081565b61077a8061013383390190565b5f6020828403121561012b575f80fd5b503591905056fe5f805460ff191660019081179091556103129055600b1960025560c0604052600560809081526429b2bb32b760d91b60a05260039061003e908261012f565b5060408051808201825260078152815180830190925260058083526420bcb0b0b760d91b6020848101919091528201839052815181559091600690610083908261012f565b505050348015610091575f80fd5b506101e9565b634e487b7160e01b5f52604160045260245ffd5b600181811c908216806100bf57607f821691505b6020821081036100dd57634e487b7160e01b5f52602260045260245ffd5b50919050565b601f82111561012a57805f5260205f20601f840160051c810160208510156101085750805b601f840160051c820191505b81811015610127575f8155600101610114565b50505b505050565b81516001600160401b0381111561014857610148610097565b61015c8161015684546100ab565b846100e3565b6020601f82116001811461018e575f83156101775750848201515b5f19600385901b1c1916600184901b178455610127565b5f84815260208120601f198516915b828110156101bd578785015182556020948501946001909201910161019d565b50848210156101da57868401515f19600387901b60f8161c191681555b50505050600190811b01905550565b610584806101f65f395ff3fe608060405234801561000f575f80fd5b506004361061007a575f3560e01c8063471f7cdf11610058578063471f7cdf146100d65780636057361d146100df5780636f760f41146100f45780639e7a13ad14610107575f80fd5b80632e64cec11461007e57806343ec8f471461009557806346cb59c2146100c0575b5f80fd5b6001545b6040519081526020015b60405180910390f35b6100826100a336600461032a565b805160208183018101805160048252928201919093012091525481565b6100c861011a565b60405161008c929190610364565b61008260015481565b6100f26100ed3660046103a0565b600155565b005b6100f26101023660046103b7565b6101af565b6100c86101153660046103a0565b610258565b600580546006805491929161012e906103f9565b80601f016020809104026020016040519081016040528092919081815260200182805461015a906103f9565b80156101a55780601f1061017c576101008083540402835291602001916101a5565b820191905f5260205f20905b81548152906001019060200180831161018857829003601f168201915b5050505050905082565b6040805180820190915281815260208101838152600780546001810182555f91909152825160029091027fa66cc928b5edb82af9bd49922954155ab7b0942694bea4ce44661d9a8736c6888101918255915190917fa66cc928b5edb82af9bd49922954155ab7b0942694bea4ce44661d9a8736c6890190610230908261047d565b505050806004836040516102449190610538565b908152604051908190036020019020555050565b60078181548110610267575f80fd5b5f918252602090912060029091020180546001820180549193509061012e906103f9565b634e487b7160e01b5f52604160045260245ffd5b5f82601f8301126102ae575f80fd5b813567ffffffffffffffff8111156102c8576102c861028b565b604051601f8201601f19908116603f0116810167ffffffffffffffff811182821017156102f7576102f761028b565b60405281815283820160200185101561030e575f80fd5b816020850160208301375f918101602001919091529392505050565b5f6020828403121561033a575f80fd5b813567ffffffffffffffff811115610350575f80fd5b61035c8482850161029f565b949350505050565b828152604060208201525f82518060408401528060208501606085015e5f606082850101526060601f19601f8301168401019150509392505050565b5f602082840312156103b0575f80fd5b5035919050565b5f80604083850312156103c8575f80fd5b823567ffffffffffffffff8111156103de575f80fd5b6103ea8582860161029f565b95602094909401359450505050565b600181811c9082168061040d57607f821691505b60208210810361042b57634e487b7160e01b5f52602260045260245ffd5b50919050565b601f82111561047857805f5260205f20601f840160051c810160208510156104565750805b601f840160051c820191505b81811015610475575f8155600101610462565b50505b505050565b815167ffffffffffffffff8111156104975761049761028b565b6104ab816104a584546103f9565b84610431565b6020601f8211600181146104dd575f83156104c65750848201515b5f19600385901b1c1916600184901b178455610475565b5f84815260208120601f198516915b8281101561050c57878501518255602094850194600190920191016104ec565b508482101561052957868401515f19600387901b60f8161c191681555b50505050600190811b01905550565b5f82518060208501845e5f92019182525091905056fea26469706673582212200e110dba80148492f7e6b4c34d5e634696362276a14510d49ab7185cd270f14e64736f6c634300081a0033a2646970667358221220f7da9ea553b64cf8fcf5a6e821da628041012106f6a0f68522f3a7e8a101388164736f6c634300081a0033",
    "sourcePath": "/Users/mdmuzzammilrashid/Desktop/Blockchain/Contracts/Import Contracts/StorageFactory.sol",
    "compiler": {
        "name": "solc",
        "version": "0.8.26+commit.8a97fa7a"
    },
    "functionHashes": {
        "createSimpleStorageContract()": "1dda6541",
        "simpleStorageList(uint256)": "ceaf9ec1"
    },
    "gasEstimates": {
        "creation": {
            "codeDepositCost": "454800",
            "executionCost": "491",
            "totalCost": "455291"
        },
        "external": {
            "createSimpleStorageContract()": "infinite",
            "simpleStorageList(uint256)": "4598"
        }
    }
}